:04000000FEEF00F01F
:10000800FACF34F0FBCF35F0E9CF36F0EACF37F04E
:10001800E1CF38F0E2CF39F0D9CF3AF0DACF3BF080
:10002800F3CF3CF0F4CF3DF0F6CF3EF0F7CF3FF002
:10003800F8CF40F0F5CF41F0F2AA01D001D0BDD001
:10004800F2A401D001D0B9D0F29446044710D8A444
:1000580001D001D011D025C030F026C031F0301EBB
:10006800311E304A312AFF0E3024276EFF0E312010
:10007800286E9EEC0AF009D0FF0E2524276EDF0EAD
:100088002620286E9EEC0AF000D0000E436E000E6B
:10009800426E090E425C000E4358D8A001D001D030
:1000A80002D082D081D045504410D8A401D001D0CC
:1000B80038D0D8904234306E010E3024D96EDA6AC6
:1000C800000EDA22DECF27F0DDCF28F046C029F077
:1000D80047C02AF0E9EC08F0D8904234306E130E8D
:1000E8003024D96EDA6A000EDA22DECF27F0DDCFAF
:1000F80028F0D8904234316E0001990E3124D96E1F
:10010800DA6A0001000EDA22DECF32F0DDCF33F0FA
:1001180046503214296E475033142A6EE9EC08F021
:1001280038D0D8904234306E010E3024D96EDA6A55
:10013800000EDA22DECF27F0DDCF28F0D890423447
:10014800316E0001990E3124D96EDA6A0001000E71
:10015800DA22DECF32F0DDCF33F046503214296E8A
:10016800475033142A6EE9EC08F0D8904234306EC8
:10017800130E3024D96EDA6A000EDA22DECF27F0A9
:10018800DDCF28F046C029F047C02AF0E9EC08F096
:1001980000D0424A432A090E425C000E4358D8A0B8
:1001A80001D001D080D700D047504610000ED8B4F7
:1001B800010E466E476A01D000D041C0F5FF40C02D
:1001C800F8FF3FC0F7FF3EC0F6FF3DC0F4FF3CC05C
:1001D800F3FF3BC0DAFF3AC0D9FF39C0E2FF38C0AD
:1001E800E1FF37C0EAFF36C0E9FF35C0FBFF34C086
:1001F800FAFF1100B9EF09F021EE60F011EE00F0FE
:10020800120EDECFE6FFE82EFCD721EE72F011EEDB
:1002180048F0120EDECFE6FFE82EFCD721EE84F080
:1002280011EE12F0120EDECFE6FFE82EFCD721EE1B
:10023800A8F011EE36F0120EDECFE6FFE82EFCD75E
:1002480021EE96F011EE24F0120EDECFE6FFE82E36
:10025800FCD7000E010101015D6F000E01015C6F0A
:10026800000E010101015B6F000E01015A6FFF0EC4
:1002780000010001856FEF0E0001846F8CEC0AF01D
:100288000001966F900E00010001846F00019651E5
:100298003AEC0AF0010E0F010F01256F000E0F0155
:1002A8000F01246F000E0F010F01236F000EC26EA5
:1002B800200EC16EB80EC06E010EC26EB2EC0AF00E
:1002C800050E00010001856F100E0001846F000EFD
:1002D80000010001876F010E0001866FC7EC06F070
:1002E800050E00010001856F200E0001846F000ECD
:1002F80000010001876F010E0001866FC7EC06F050
:10030800000E00010001856F010E0001846F000ED0
:1003180000010001876F010E0001866FC7EC06F02F
:10032800000E010101015F6F000E01015E6F090EF1
:10033800010101015E5D000E01015F59D8A001D0E5
:1003480001D002D0A0D09FD00101D89001015E3524
:100358000001966F0001600E00019625D96EDA6AD9
:100368000001000EDA220001DECF84F00001DDCFAB
:1003780085F0000E00010001876F010E0001866FF5
:10038800C7EC06F00101D89001015E350001966FB7
:10039800010E00019625D96EDA6A000EDA220001F4
:1003A800DECF84F00001DDCF85F0000E00010001F2
:1003B800876F000E0001866FC7EC06F00101D89028
:1003C80001015E350001966F130E00019625D96E66
:1003D800DA6A000EDA220001DECF84F00001DDCFF8
:1003E80085F0000E00010001876F000E0001866F86
:1003F800C7EC06F00101D89001015E350001966F47
:100408000001720E00019625D96EDA6A0001000E0D
:10041800DA220001DECF84F00001DDCF85F0000E86
:1004280000010001876F000E0001866FC7EC06F01F
:100438005EC184F05FC185F074EC0AF00001966F2C
:10044800976B0101D89001015E350001986F010199
:10045800360E00019825D96EDA6A0101010EDA22FA
:1004680096C0DEFF97C0DDFF010101015E4B5F2BE7
:10047800090E010101015E5D000E01015F59D8A05E
:1004880001D001D061D7F28E00D0000E000100012A
:10049800856F140E0001846F74EC09F0AEEC0AF05D
:1004A8000009D8A401D001D029D095EC0AF0FF0E9C
:1004B800000100018415010101015A6F0F0E0001AE
:1004C8000001851501015B6F000E010101015A252C
:1004D800256E010E010101015B21266E000E255CCF
:1004E800200E2658D8A001D001D005D01F0E266EA8
:1004F800FF0E256E00D0B2EC0AF000D0000E01010C
:1005080001015F6F000E01015E6F090E010101011B
:100518005E5D000E01015F59D8A001D001D002D064
:10052800A9D0A8D00101D89001015E350001966FCD
:100538000001600E00019625D96EDA6A0001000EEE
:10054800DA220001DECF84F00001DDCF85F04AEC2D
:1005580008F00001976F00019705D8A401D001D0D9
:100568003CD00101D89001015E350001966F010170
:10057800000E00019625D96EDA6A0101010EDA2211
:10058800DE50DD10D8A401D001D013D00101D890DD
:1005980001015E350001966F0101480E00019625A4
:1005A800D96EDA6A0101010EDA22010EDE6E000E42
:1005B800DD6E0101D89001015E350001966F0101E1
:1005C800000E00019625D96EDA6A0101010EDA22C1
:1005D800010EDE6E000EDD6E3DD00101D8900101E6
:1005E8005E350001966F0101000E00019625D96E57
:1005F800DA6A0101010EDA22DE50010ADD10D8A400
:1006080001D001D013D00101D89001015E3500015D
:10061800966F0101120E00019625D96EDA6A010162
:10062800010EDA22010EDE6E000EDD6E0101D89099
:1006380001015E350001966F0101000E000196254B
:10064800D96EDA6A0101010EDA22000EDE6E000EA2
:10065800DD6E00D0010101015E4B5F2B090E010127
:1006680001015E5D000E01015F59D8A001D001D0E3
:1006780059D700D0050E00010001856F100E00014A
:10068800846F4AEC08F00001966F00019605D8A423
:1006980001D001D055D1010101015D515C11D8A4EF
:1006A80001D001D08ED0010E00010001856FF40E3B
:1006B8000001846F74EC09F0000E010101015F6F05
:1006C800000E01015E6F090E010101015E5D000E61
:1006D80001015F59D8A001D001D002D06BD06AD0F7
:1006E800050E00010001856F200E0001846F4AECA1
:1006F80008F00009000ED8B4010E000100018D6F4A
:1007080000018E6B5EC18FF05FC190F0FF0E00019B
:100718000001926FFF0E0001916F0101D890010155
:100728005E350001966F0101360E00019625D96EDF
:10073800DA6A0101010EDA220001DECF93F000012E
:10074800DDCF94F0FCEC09F00101D89001015E3591
:100758000001966F0101120E00019625D96EDA6A22
:100768000101010EDA22000EDE6E000EDD6E0101BF
:10077800D89001015E350001966F0101480E000115
:100788009625D96EDA6A0101010EDA22000EDE6EB4
:10079800000EDD6E010101015E4B5F2B090E0101A8
:1007A80001015E5D000E01015F59D8A001D001D0A2
:1007B80097D700D0000E010101015D6F010E010104
:1007C8005C6F000E010101015F6F000E01015E6F99
:1007D800090E010101015E5D000E01015F59D8A0FB
:1007E80001D001D002D051D650D60101D8900101D4
:1007F8005E350001966F0101480E00019625D96EFD
:10080800DA6A0101010EDA22DE50010ADD10D8A4ED
:1008180001D001D050D00101D89001015E3500010E
:10082800966F0101360E00019625D96EDA6A01012C
:10083800010EDA22DE50DD10D8A401D001D014D088
:100848000101D89001015E350001966F0101360E55
:1008580000019625D96EDA6A0101010EDA22010E2D
:10086800DE6E000EDD6E13D00101D89001015E35F9
:100878000001966F0101360E00019625D96EDA6ADD
:100888000101010EDA22000EDE6E000EDD6E01019E
:10089800D89001015E350001966F0101480E0001F4
:1008A8009625D96EDA6A0101010EDA22000EDE6E93
:1008B800000EDD6E00D0050E00010001856F200ED0
:1008C8000001846F4AEC08F00009000ED8B4010E4C
:1008D800000100018D6F00018E6B5EC18FF05FC15A
:1008E80090F0FF0E00010001926FFF0E0001916F62
:1008F8000101D89001015E350001966F0101360EA5
:1009080000019625D96EDA6A0101010EDA2200018A
:10091800DECF93F00001DDCF94F0FCEC09F001018B
:1009280001015E4B5F2B090E010101015E5D000EA6
:1009380001015F59D8A001D001D057D7A6D5A5D5B8
:10094800010101015C055D11D8A401D001D0B7D027
:10095800070E00010001856FD00E0001846F74EC52
:1009680009F0000E010101015F6F000E01015E6FC9
:10097800090E010101015E5D000E01015F59D8A059
:1009880001D001D002D094D093D05EC184F05FC171
:1009980085F00101D89001015E350001966F0101D3
:1009A800360E00019625D96EDA6A0101010EDA22A7
:1009B800DF5000010001866F20EC0AF0A7EC0AF076
:1009C800050E00010001856F200E0001846F4AECBE
:1009D80008F00009000ED8B4010E000100018D6F67
:1009E80000018E6B5EC18FF05FC190F00101D8905D
:1009F80001015E350001966F0001720E0001962517
:100A0800D96EDA6A0001000EDA220001DECF91F019
:100A18000001DDCF92F00101D89001015E3500019F
:100A2800976F0101240E00019725D96EDA6A01013A
:100A3800010EDA220001DECF93F00001DDCF94F041
:100A4800FCEC09F00101D89001015E350001966FB8
:100A58000101480E00019625D96EDA6A0101010EDE
:100A6800DA22000EDE6E000EDD6E0101D890010163
:100A78005E350001966F0101120E00019625D96EB0
:100A8800DA6A0101010EDA22000EDE6E000EDD6E5A
:100A9800010101015E4B5F2B090E010101015E5D41
:100AA800000E01015F59D8A001D001D06ED700D047
:100AB800000E010101015D6F000E01015C6F000E67
:100AC800010101015F6F000E01015E6F090E010156
:100AD80001015E5D000E01015F59D8A001D001D06F
:100AE80002D0D3D4D2D40101D89001015E350001DF
:100AF800966F0101360E00019625D96EDA6A01015A
:100B0800010EDA22DE50010ADD10D8A401D001D08E
:100B180067D00101D89001015E350001966F01018F
:100B2800480E00019625D96EDA6A0101010EDA2213
:100B3800DE50010ADD10D8A401D001D0CBD00101CC
:100B4800D89001015E350001966F0101240E000165
:100B58009625D96EDA6A0101010EDA22DE50DD101F
:100B6800D8A401D001D014D00101D89001015E357C
:100B78000001966F0101240E00019625D96EDA6AEC
:100B88000101010EDA22010EDE6E000EDD6E13D0B9
:100B98000101D89001015E350001966F0101240E14
:100BA80000019625D96EDA6A0101010EDA22000EDB
:100BB800DE6E000EDD6E0101D89001015E35000188
:100BC800966F0101480E00019625D96EDA6A010177
:100BD800010EDA22000EDE6E000EDD6E7BD07AD0BA
:100BE8000101D89001015E350001966F0101480EA0
:100BF80000019625D96EDA6A0101010EDA22DE506B
:100C0800010ADD10D8A401D001D026D00101D89066
:100C180001015E350001966F0101240E0001962541
:100C2800D96EDA6A0101010EDA22010EDE6E000EBB
:100C3800DD6E0101D89001015E350001966F01015A
:100C4800480E00019625D96EDA6A0101010EDA22F2
:100C5800000EDE6E000EDD6E0101D89001015E35DA
:100C68000001966F0101120E00019625D96EDA6A0D
:100C78000101010EDA22DE50010ADD10D8A401D0EC
:100C880001D028D00101D89001015E350001966F8E
:100C98000101240E00019625D96EDA6A0101010EC0
:100CA800DA22000EDE6E000EDD6E0101D890010121
:100CB8005E350001966F0101120E00019625D96E6E
:100CC800DA6A0101010EDA22000EDE6E000EDD6E18
:100CD80001D000D0050E00010001856F200E000133
:100CE800846F4AEC08F00009000ED8B4010E000128
:100CF80000018D6F00018E6B5EC18FF05FC190F0B7
:100D08000101D89001015E350001966F0001720E55
:100D180000019625D96EDA6A0001000EDA22000178
:100D2800DECF91F00001DDCF92F00101D8900101F2
:100D38005E350001976F0101240E00019725D96ED9
:100D4800DA6A0101010EDA220001DECF93F0000118
:100D5800DDCF94F0FCEC09F0010101015E4B5F2B43
:100D6800090E010101015E5D000E01015F59D8A065
:100D780001D001D0B8D649EF02F049EF02F049EFAF
:100D880002F0FEEF00F0000E000100018B6F000E74
:100D980000018A6F000100018551000100018C6F7C
:100DA80000018D6B84C08EF08ED000010001860595
:100DB8008711D8A401D001D005D0000100018E51BF
:100DC8009212A5D0000100018E51FF0A92169FD001
:100DD8009ED00001000186058711D8A401D001D05A
:100DE80005D0000100018E51931291D0000100013D
:100DF8008E51FF0A93168BD08AD000010001860518
:100E08008711D8A401D001D005D0000100018E516E
:100E180094127DD0000100018E51FF0A941677D0FC
:100E280076D00001000186058711D8A401D001D031
:100E380005D0000100018E51951269D00001000112
:100E48008E51FF0A951663D062D000010001860515
:100E58008711D8A401D001D005D0000100018E511E
:100E6800961255D0000100018E51FF0A96164FD0F8
:100E78004ED00001000186058711D8A401D001D009
:100E880005D0000100018E51971241D000010001E8
:100E98008E51FF0A97163BD03AD000010001860513
:100EA8008711D8A401D001D005D0000100018E51CE
:100EB80098122DD0000100018E51FF0A981627D0F4
:100EC80026D025D024D000018CC088F000018DC028
:100ED80089F000018951000AD8B401D018D0000166
:100EE8008851000AD8B461D7010AD8B472D7030A66
:100EF800D8B483D7010AD8B494D7070AD8B4A5D7E9
:100F0800010AD8B4B6D7030AD8B4C7D700D012009C
:100F1800000100018551000100018A6F00018B6BFF
:100F280084C08CF08ED00001000186058711D8A4FA
:100F380001D001D005D0000100018C518912A5D043
:100F4800000100018C51FF0A89169FD09ED0000134
:100F5800000186058711D8A401D001D005D0000171
:100F680000018C518A1291D0000100018C51FF0AB6
:100F78008A168BD08AD00001000186058711D8A473
:100F880001D001D005D0000100018C518B127DD019
:100F9800000100018C51FF0A8B1677D076D0000132
:100FA800000186058711D8A401D001D005D0000121
:100FB80000018C518C1269D0000100018C51FF0A8C
:100FC8008C1663D062D00001000186058711D8A471
:100FD80001D001D005D0000100018C518D1255D0EF
:100FE800000100018C51FF0A8D164FD04ED0000130
:100FF800000186058711D8A401D001D005D00001D1
:1010080000018C518E1241D0000100018C51FF0A61
:101018008E163BD03AD00001000186058711D8A46E
:1010280001D001D005D0000100018C518F122DD0C4
:10103800000100018C51FF0A8F1627D026D025D039
:1010480024D000018AC088F000018BC089F000011B
:101058008951000AD8B401D018D000018851000A7B
:10106800D8B461D7010AD8B472D7030AD8B483D7E1
:10107800010AD8B494D7070AD8B4A5D7010AD8B4B6
:10108800B6D7030AD8B4C7D700D01200000E0001A3
:1010980000018B6F000E00018A6F0001000185516D
:1010A80000010001886F0001896B84C08CF064D056
:1010B8008050000100018C150009000ED8B4010E03
:1010C800000100018A6F00018B6B7AD0815000010A
:1010D80000018C150009000ED8B4010E00010001B2
:1010E8008A6F00018B6B6CD08250000100018C1557
:1010F8000009000ED8B4010E000100018A6F00013A
:101108008B6B5ED08350000100018C150009000E26
:10111800D8B4010E000100018A6F00018B6B50D01A
:101128008450000100018C150009000ED8B4010E8E
:10113800000100018A6F00018B6B42D085500001CD
:1011480000018C150009000ED8B4010E0001000141
:101158008A6F00018B6B34D08650000100018C151A
:101168000009000ED8B4010E000100018A6F0001C9
:101178008B6B26D025D024D0000188C086F00001D2
:1011880089C087F000018751000AD8B401D018D06F
:1011980000018651000AD8B48BD7010AD8B496D773
:1011A800030AD8B4A1D7010AD8B4ACD7070AD8B46F
:1011B800B7D7010AD8B4C2D7030AD8B4CDD700D05C
:1011C800000100018A5100D0120028502D6E2E6AAD
:1011D80027C02FF064D029042A10D8A401D001D048
:1011E80003D02F5089127BD02F50FF0A891677D051
:1011F80076D029042A10D8A401D001D003D02F50CA
:101208008A126DD02F50FF0A8A1669D068D0290437
:101218002A10D8A401D001D003D02F508B125FD050
:101228002F50FF0A8B165BD05AD029042A10D8A455
:1012380001D001D003D02F508C1251D02F50FF0A6B
:101248008C164DD04CD029042A10D8A401D001D036
:1012580003D02F508D1243D02F50FF0A8D163FD048
:101268003ED029042A10D8A401D001D003D02F5091
:101278008E1235D02F50FF0A8E1631D030D0290467
:101288002A10D8A401D001D003D02F508F1227D014
:101298002F50FF0A8F1623D022D021D020D02DC066
:1012A8002BF02EC02CF02C50000AD8B401D017D047
:1012B8002B50000AD8B48FD7010AD8B49AD7030A9A
:1012C800D8B4A5D7010AD8B4B0D7070AD8B4BBD7C1
:1012D800010AD8B4C6D7030AD8B4D1D700D01200AF
:1012E800000E00010001876F000E0001866F2BD0F1
:1012F800000E00010001896F000E0001886F0001D7
:1013080000018951800A800F910ED8B4885DD8A059
:1013180001D001D002D012D011D000010001884BB9
:10132800892B000100018951800A800F910ED8B4E1
:10133800885DD8A001D001D0F0D700D0000100010D
:10134800864B872B00D00001000184510001000169
:10135800865D000100018551000100018759D8A070
:1013680001D001D0C5D700D0120001EE60F0480EC0
:10137800EE6AE806FDE100EE99F0120EEE6AE80664
:10138800FDE1476A466A456A446A060EF66E150E1E
:10139800F76E000EF86E01EEA8F010EE12F00900DC
:1013A800F5CFEEFFE550E150FAE1C40EF66E140EEB
:1013B800F76E000EF86E00EE60F010EE24F00900F3
:1013C800F5CFEEFFE550E150FAE19E0EF66E140EF1
:1013D800F76E000EF86E00EE01F010EE26F0090030
:1013E800F5CFEEFFE550E150FAE1000100EF01F022
:1013F8008DC044F08EC045F00001D89000018F35B3
:101408000001956F0001990E00019525D96EDA6AE1
:101418000001000EDA22000193C0DEFF000194C033
:10142800DDFF91C084F092C085F093C086F094C02F
:1014380087F08CEC07F01200000100018551030BC6
:10144800636E84C062FF86C061FF7F9E7F9C7F843D
:10145800F29E550E7E6EAA0E7E6E7F8200D07FB2FF
:1014680001D001D0FCD7F28E7F9412000001000158
:1014780084517F0BD56E000ED76E000ED66EF29497
:101488000001000184AF01D001D002D0F28A01D05E
:10149800F29AD58E12008002400201020202100068
:1014A80020000200040008000204010401060206EC
:1014B800040608061006800540050001040302031F
:1014C80001038004400420041004080404040803F1
:1014D80010032003400380030101020104010801F5
:1014E800000100018551030B636E84C062FF7F9C7D
:1014F8007F9E7F8000F000F0615000D01200010054
:1015080001000100010001000100010001000100CB
:1015180084C086F085C087F087C0D7FF86C0D6FF15
:101528001200C45000010001856FC3500001846F90
:1015380000D0120027C029F028C02AF02AC0D7FFFF
:1015480029C0D6FF120000D07FB201D001D0FCD74D
:1015580000D01200C230010B00D01200C28212006B
:020000040020DA
:08000000FFFFFFFFFFFFFFFF00
:020000040030CA
:0E0000001508677C018991FF0FC00FE00F40CB
:00000001FF
