:040000008FEF39F055
:1072C0001200120001000100010001000100010094
:1072D00001000100010004030203010380044004D3
:1072E0002004100408040404800240020102020287
:1072F000100020000200040008000204010401063E
:10730000020604060806100680054005080310035F
:10731000200340038003010102010401080101EE82
:10732000EEF0120EEE6AE806FDE100EE60F0120EDD
:10733000EE6AE806FDE100EE01F0240EEE6AE806D2
:10734000FDE1D60EF66E720EF76E000EF86E01EECF
:10735000A6F010EE48F00900F5CFEEFFE550E15041
:10736000FAE1C40EF66E720EF76E000EF86E00EEC5
:107370003DF010EE12F00900F5CFEEFFE550E150C0
:10738000FAE10001F7EF3AF02F502E10D8A401D007
:1073900001D015D030C025F031C026F0000E286E87
:1073A000010E276E6CEC3AF032C025F033C026F0A7
:1073B00036C027F037C028F06CEC3AF014D030C05B
:1073C00025F031C026F036C027F037C028F06CEC2D
:1073D0003AF032C025F033C026F0000E286E010EC0
:1073E000276E6CEC3AF034C025F035C026F036C07C
:1073F00027F037C028F06CEC3AF01200000E2C6E2B
:10740000000E2B6E2650296E2A6A25C02DF041D021
:1074100089502D140009000ED8B4010E2B6E2C6A71
:1074200058D08A502D140009000ED8B4010E2B6ECE
:107430002C6A4FD08B502D140009000ED8B4010EC9
:107440002B6E2C6A46D08C502D140009000ED8B437
:10745000010E2B6E2C6A3DD08D502D140009000EAC
:10746000D8B4010E2B6E2C6A34D08E502D14000926
:10747000000ED8B4010E2B6E2C6A2BD08F502D1419
:107480000009000ED8B4010E2B6E2C6A22D021D038
:1074900020D029C027F02AC028F02850000AD8B4EC
:1074A00001D017D02750000AD8B4B2D7010AD8B4F7
:1074B000B8D7030AD8B4BED7010AD8B4C4D7070ACC
:1074C000D8B4CAD7010AD8B4D0D7030AD8B4D6D70B
:1074D00000D02B5000D0120026502B6E2C6A25C0F5
:1074E0002DF064D027042810D8A401D001D003D0F7
:1074F0002D5080127BD02D50FF0A801677D076D089
:1075000027042810D8A401D001D003D02D50811217
:107510006DD02D50FF0A811669D068D0270428103D
:10752000D8A401D001D003D02D5082125FD02D50AD
:10753000FF0A82165BD05AD027042810D8A401D0A5
:1075400001D003D02D50831251D02D50FF0A831645
:107550004DD04CD027042810D8A401D001D003D09E
:107560002D50841243D02D50FF0A84163FD03ED0B8
:1075700027042810D8A401D001D003D02D508512A3
:1075800035D02D50FF0A851631D030D02704281071
:10759000D8A401D001D003D02D50861227D02D5071
:1075A000FF0A861623D022D021D020D02BC029F06C
:1075B0002CC02AF02A50000AD8B401D017D0295084
:1075C000000AD8B48FD7010AD8B49AD7030AD8B41E
:1075D000A5D7010AD8B4B0D7070AD8B4BBD7010AD7
:1075E000D8B4C6D7030AD8B4D1D700D0120021EE40
:1075F000A6F011EE00F0120EDECFE6FFE82EFCD76B
:1076000021EEB8F011EE48F0120EDECFE6FFE82EC4
:10761000FCD721EECAF011EE5AF0120EDECFE6FFD3
:10762000E82EFCD721EEDCF011EE12F0120EDECFC8
:10763000E6FFE82EFCD721EEEEF011EE24F0120E5C
:10764000DECFE6FFE82EFCD720EE01F011EE36F09B
:10765000120EDECFE6FFE82EFCD720EE13F011EE7F
:1076600090F0120EDECFE6FFE82EFCD720EE3DF0C4
:1076700011EE6CF0120EDECFE6FFE82EFCD720EE06
:1076800060F011EE7EF0120EDECFE6FFE82EFCD7A2
:10769000000E01010101A36F000E0101A26F050E92
:1076A000266E100E256E000E286E010E276E61EC00
:1076B00039F0050E266E200E256E000E286E010E86
:1076C000276E61EC39F0000E266E010E256E000E5D
:1076D000286E000E276E61EC39F0000E01010101E9
:1076E000A56F000E0101A46F090E01010101A45D47
:1076F000000E0101A559D8A001D001D002D06ED052
:107700006DD00101D8900101A435386E0101000E41
:107710003824D96EDA6A0101010EDA22DECF25F0B3
:10772000DDCF26F0000E286E010E276E61EC39F0D9
:107730000101D8900101A435386E0101480E3824AA
:10774000D96EDA6A0101010EDA22DECF25F0DDCF33
:1077500026F0000E286E000E276E61EC39F0010154
:10776000D8900101A435386E01015A0E3824D96E23
:10777000DA6A0101010EDA22DECF25F0DDCF26F034
:10778000000E286E000E276E61EC39F00101D890D2
:107790000101A435386E0101120E3824D96EDA6A5F
:1077A0000101010EDA22DECF25F0DDCF26F0000E3A
:1077B000286E000E276E61EC39F001010101A44B27
:1077C000A52B090E01010101A45D000E0101A559BF
:1077D000D8A001D001D095D701D000D0000E266EE0
:1077E000140E256E60EC39F0000E01010101A56F49
:1077F000000E0101A46F090E01010101A45D000E3C
:107800000101A559D8A001D001D002D097D096D0BF
:107810000101D8900101A435386E0101000E382411
:10782000D96EDA6A0101010EDA22DECF25F0DDCF52
:1078300026F0FEEC39F0396E3904D8A401D001D01D
:1078400036D00101D8900101A435386E0101240E13
:107850003824D96EDA6A0101010EDA22DE50DD1019
:10786000D8A401D001D011D00101D8900101A435D4
:10787000386E0101360E3824D96EDA6A0101010E24
:10788000DA22010EDE6E000EDD6E0101D8900101DC
:10789000A435386E0101240E3824D96EDA6A01014C
:1078A000010EDA22010EDE6E000EDD6E37D0010110
:1078B000D8900101A435386E0101240E3824D96E08
:1078C000DA6A0101010EDA22DE50010ADD10D8A4C5
:1078D00001D001D011D00101D8900101A435386E3A
:1078E0000101900E3824D96EDA6A0101010EDA2204
:1078F000010EDE6E000EDD6E0101D8900101A4358F
:10790000386E0101240E3824D96EDA6A0101010EA5
:10791000DA22000EDE6E000EDD6E00D001010101E4
:10792000A44BA52B090E01010101A45D000E01016C
:10793000A559D8A001D001D06BD700D0050E266E76
:10794000100E256EFEEC39F0386E3804D8A401D044
:1079500001D051D101010101A351A211D8A401D03C
:1079600001D085D0010E266EF40E256E60EC39F044
:10797000000E01010101A56F000E0101A46F090EA7
:1079800001010101A45D000E0101A559D8A001D09B
:1079900001D002D065D064D0050E266E200E256E73
:1079A000FEEC39F0386E38502E6E2F6A0101D890F7
:1079B0000101A435396E0101480E3924D96EDA6A05
:1079C0000101010EDA22DECF30F0DDCF31F001010E
:1079D000D8900101A4353A6E01015A0E3A24D96EAD
:1079E000DA6A0101010EDA22DECF32F0DDCF33F0A8
:1079F000FF0E356EFF0E346E0101D8900101A435E3
:107A00003B6E01016C0E3B24D96EDA6A0101010E56
:107A1000DA22DECF36F0DDCF37F0C4EC39F00101E9
:107A2000D8900101A435386E0101900E3824D96E2A
:107A3000DA6A0101010EDA22000EDE6E000EDD6E42
:107A400001010101A44BA52B090E01010101A45D57
:107A5000000E0101A559D8A001D001D09DD700D0BA
:107A6000000E01010101A36F010E0101A26F000EC2
:107A700001010101A56F000E0101A46F090E0101B2
:107A80000101A45D000E0101A559D8A001D001D0CB
:107A900002D0A4D6A3D60101D8900101A435386E36
:107AA0000101900E3824D96EDA6A0101010EDA2242
:107AB000DE50010ADD10D8A401D001D048D0010168
:107AC000D8900101A435386E01016C0E3824D96EAE
:107AD000DA6A0101010EDA22DE50DD10D8A401D0ED
:107AE00001D012D00101D8900101A435386E0101F6
:107AF0006C0E3824D96EDA6A0101010EDA22010E09
:107B0000DE6E000EDD6E11D00101D8900101A435AA
:107B1000386E01016C0E3824D96EDA6A0101010E4B
:107B2000DA22000EDE6E000EDD6E0101D89001013A
:107B3000A435386E0101900E3824D96EDA6A01013D
:107B4000010EDA22000EDE6E000EDD6E00D0050E94
:107B5000266E200E256EFEEC39F0386E38502E6EF3
:107B60002F6A0101D8900101A435396E0101480E38
:107B70003924D96EDA6A0101010EDA22DECF30F043
:107B8000DDCF31F00101D8900101A4353A6E010139
:107B90005A0E3A24D96EDA6A0101010EDA22DECFDA
:107BA00032F0DDCF33F0FF0E356EFF0E346E010183
:107BB000D8900101A4353B6E01016C0E3B24D96EB7
:107BC000DA6A0101010EDA22DECF36F0DDCF37F0BE
:107BD000C4EC39F001010101A44BA52B090E0101F0
:107BE0000101A45D000E0101A559D8A001D001D06A
:107BF00052D7F4D5F3D501010101A205A311D8A4F0
:107C000001D001D0A3D0010E266EF40E256E60ECDB
:107C100039F0000E01010101A56F000E0101A46FF2
:107C2000090E01010101A45D000E0101A559D8A0B2
:107C300001D001D002D083D082D0050E266E200E56
:107C4000256EFEEC39F0386E38502E6E2F6A010129
:107C5000D8900101A435396E0101480E3924D96E3E
:107C6000DA6A0101010EDA22DECF30F0DDCF31F029
:107C70000101D8900101A4353A6E01015A0E3A244F
:107C8000D96EDA6A0101010EDA22DECF32F0DDCFE1
:107C900033F00101D8900101A4353B6E0101120EB1
:107CA0003B24D96EDA6A0101010EDA22DECF34F00C
:107CB000DDCF35F00101D8900101A4353C6E010102
:107CC0007E0E3C24D96EDA6A0101010EDA22DECF83
:107CD00036F0DDCF37F0C4EC39F00101D890010166
:107CE000A435386E0101360E3824D96EDA6A0101E6
:107CF000010EDA22000EDE6E000EDD6E0101D8905C
:107D00000101A435386E0101900E3824D96EDA6A6B
:107D10000101010EDA22000EDE6E000EDD6E0101A1
:107D20000101A44BA52B090E01010101A45D000E68
:107D30000101A559D8A001D001D07FD700D0000EF5
:107D400001010101A36F000E0101A26F000E0101EC
:107D50000101A56F000E0101A46F090E01010101CF
:107D6000A45D000E0101A559D8A001D001D002D018
:107D700035D534D50101D8900101A435386E010103
:107D80006C0E3824D96EDA6A0101010EDA22DE5057
:107D9000010ADD10D8A401D001D05DD00101D89036
:107DA0000101A435386E0101900E3824D96EDA6ACB
:107DB0000101010EDA22DE50010ADD10D8A401D043
:107DC00001D0B7D00101D8900101A435386E01016E
:107DD0007E0E3824D96EDA6A0101010EDA22DE50F5
:107DE000DD10D8A401D001D012D00101D89001013A
:107DF000A435386E01017E0E3824D96EDA6A01018D
:107E0000010EDA22010EDE6E000EDD6E11D00101D0
:107E1000D8900101A435386E01017E0E3824D96E48
:107E2000DA6A0101010EDA22000EDE6E000EDD6E4E
:107E30000101D8900101A435386E0101900E38245B
:107E4000D96EDA6A0101010EDA22000EDE6E000E32
:107E5000DD6E6FD06ED00101D8900101A435386E6F
:107E60000101360E3824D96EDA6A0101010EDA22D8
:107E7000DE50010ADD10D8A401D001D022D00101CA
:107E8000D8900101A435386E01017E0E3824D96ED8
:107E9000DA6A0101010EDA22010EDE6E000EDD6EDD
:107EA0000101D8900101A435386E0101360E382445
:107EB000D96EDA6A0101010EDA22000EDE6E000EC2
:107EC000DD6E0101D8900101A435386E0101900EDC
:107ED0003824D96EDA6A0101010EDA22DE50010A75
:107EE000DD10D8A401D001D024D00101D890010127
:107EF000A435386E01017E0E3824D96EDA6A01018C
:107F0000010EDA22000EDE6E000EDD6E0101D89049
:107F10000101A435386E0101900E3824D96EDA6A59
:107F20000101010EDA22000EDE6E000EDD6E01D0C0
:107F300000D0050E266E200E256EFEEC39F0386E50
:107F400038502E6E2F6A0101D8900101A435396E88
:107F50000101480E3924D96EDA6A0101010EDA22D4
:107F6000DECF30F0DDCF31F00101D8900101A43532
:107F70003A6E01015A0E3A24D96EDA6A0101010EF5
:107F8000DA22DECF32F0DDCF33F00101D8900101EB
:107F9000A4353B6E0101120E3B24D96EDA6A010151
:107FA000010EDA22DECF34F0DDCF35F00101D890BA
:107FB0000101A4353C6E01017E0E3C24D96EDA6AC3
:107FC0000101010EDA22DECF36F0DDCF37F0C4EC4E
:107FD00039F001010101A44BA52B090E010101019A
:107FE000A45D000E0101A559D8A001D001D0C2D6D0
:107FF000EEEF3BF0EEEF3BF0EEEF3BF000EF00F08A
:020000040020DA
:08000000FFFFFFFFFFFFFFFF00
:020000040030CA
:0E0000005D087F7F018991FF0FC00FE00F4068
:00000001FF
