:040000000EEF01F00E
:10000800FACF10F0FBCF11F0E9CF12F0EACF13F0DE
:10001800E1CF14F0E2CF15F0D9CF16F0DACF17F010
:10002800F3CF18F0F4CF19F0F6CF1AF0F7CF1BF092
:10003800F8CF1CF0F5CF1DF0F2AA01D001D0CDD039
:10004800F2A401D001D0C9D0F2943F044010D8A442
:1000580001D001D011D03BC00AF03CC00BF00A1E01
:100068000B1E0A4A0B2AFF0E0A24016EFF0E0B20F4
:10007800026ECEEC0AF009D0FF0E3B24016EEF0EA3
:100088003C20026ECEEC0AF000D0000E1F6E000E6F
:100098001E6E090E1E5C000E1F58D8A001D001D09C
:1000A80002D092D091D03E503D10D8A401D001D0BA
:1000B80040D0D8901E340A6E1F340B6E290E0A24C5
:1000C800D96E000E0B20DA6EDECF01F0DDCF02F024
:1000D8003FC003F040C004F0C0EC08F0D8901E34D4
:1000E8000A6E1F340B6E0001720E0A24D96E0001CD
:1000F800000E0B20DA6EDECF01F0DDCF02F0D890D3
:100108001E340C6E1F340D6E0001840E0C24D96E43
:100118000001000E0D20DA6EDECF0EF0DDCF0FF0FD
:100128003F500E14036E40500F14046EC0EC08F0DC
:1001380040D0D8901E340A6E1F340B6E290E0A2444
:10014800D96E000E0B20DA6EDECF01F0DDCF02F0A3
:10015800D8901E340C6E1F340D6E0001840E0C24D2
:10016800D96E0001000E0D20DA6EDECF0EF0DDCF65
:100178000FF03F500E14036E40500F14046EC0EC85
:1001880008F0D8901E340A6E1F340B6E0001720EF0
:100198000A24D96E0001000E0B20DA6EDECF01F0C2
:1001A800DDCF02F03FC003F040C004F0C0EC08F01F
:1001B80000D01E4A1F2A090E1E5C000E1F58D8A028
:1001C80001D001D070D700D040503F10000ED8B4F5
:1001D800010E3F6E406A01D000D01DC0F5FF1CC063
:1001E800F8FF1BC0F7FF1AC0F6FF19C0F4FF18C0CC
:1001F800F3FF17C0DAFF16C0D9FF15C0E2FF14C01D
:10020800E1FF13C0EAFF12C0E9FF11C0FBFF10C0F5
:10021800FAFF1100B9EF09F021EE60F011EE00F0DD
:10022800120EDECFE6FFE82EFCD721EE72F011EEBB
:1002380048F0120EDECFE6FFE82EFCD721EE84F060
:1002480011EE12F0120EDECFE6FFE82EFCD721EEFB
:10025800BAF011EE36F0120EDECFE6FFE82EFCD72C
:1002680021EE96F011EE24F0120EDECFE6FFE82E16
:10027800FCD7000E010101015D6F000E01015C6FEA
:10028800000E010101015B6F000E01015A6FFF0EA4
:10029800216EEF0E206EC5EC0AF00001A06F900EE3
:1002A800206E0001A0519DEC0AF0010E0F010F0114
:1002B800256F000E0F010F01246F000E0F010F01B3
:1002C800236F000EC26E200EC16EB80EC06E010EF6
:1002D800C26EE8EC0AF0050E216E100E206E000EBC
:1002E800236E010E226E82EC07F0050E216E200EA1
:1002F800206E000E236E010E226E82EC07F0000EB7
:10030800216E010E206E000E236E010E226E82EC0D
:1003180007F0000E010101015F6F000E01015E6F21
:10032800090E010101015E5D000E01015F59D8A0AF
:1003380001D001D002D0ACD0ABD0D89001010101DE
:100348005E350001A06F010101015F350001A16F59
:100358000101A80E0001A025D96E0101010E0001BE
:10036800A121DA6EDECF20F0DDCF21F0000E236E62
:10037800010E226E82EC07F0D890010101015E3572
:100388000001A06F010101015F350001A16F290E75
:100398000001A025D96E000E0001A121DA6EDECF82
:1003A80020F0DDCF21F0000E236E000E226E82ECCD
:1003B80007F0D890010101015E350001A06F01012D
:1003C80001015F350001A16F0001720E0001A02537
:1003D800D96E0001000E0001A121DA6EDECF20F0F7
:1003E800DDCF21F0000E236E000E226E82EC07F0A6
:1003F800D890010101015E350001A06F01010101E2
:100408005F350001A16F0001600E0001A025D96EC3
:100418000001000E0001A121DA6EDECF20F0DDCF51
:1004280021F0000E236E000E226E82EC07F05EC1F2
:1004380020F05FC121F0AEEC0AF00001A06FA16BC3
:10044800D890010101015E350001A26F010101018F
:100458005F350001A36F0101360E0001A225D96E98
:100468000101010E0001A321DA6EA0C0DEFFA1C0C8
:10047800DDFF010101015E4B5F2B090E0101010146
:100488005E5D000E01015F59D8A001D001D055D79B
:10049800F28E00D0000E216E140E206EFCEC09F0D6
:1004A800E4EC0AF00009D8A401D001D025D0DEEC94
:1004B8000AF0FF0E2014010101015A6F0F0E2114DA
:1004C80001015B6F000E010101015A253B6E010E0F
:1004D800010101015B213C6E000E3B5C100E3C5893
:1004E800D8A001D001D005D00F0E3C6EFF0E3B6E98
:1004F80000D0E8EC0AF000D0000E010101015F6FA6
:10050800000E01015E6F090E010101015E5D000E22
:1005180001015F59D8A001D001D002D0D1D0D0D0EC
:10052800D890010101015E350001A06F01010101B0
:100538005F350001A16F0101A80E0001A025D96E49
:100548000101010E0001A121DA6EDECF20F0DDCF1E
:1005580021F04BEC09F00001A26F0001A205D8A41C
:1005680001D001D04ED0D890010101015E350001C3
:10057800A06F010101015F350001A16F0101000EAB
:100588000001A025D96E0101010E0001A121DA6E3A
:10059800DE50DD10D8A401D001D019D0D8900101C7
:1005A80001015E350001A06F010101015F35000105
:1005B800A16F0101480E0001A025D96E0101010EAD
:1005C8000001A121DA6E010EDE6E000EDD6ED890FC
:1005D800010101015E350001A06F010101015F35D4
:1005E8000001A16F0101000E0001A025D96E0101D3
:1005F800010E0001A121DA6E010EDE6E000EDD6E25
:100608004FD0D890010101015E350001A06F0101B2
:1006180001015F350001A16F0101000E0001A02555
:10062800D96E0101010E0001A121DA6EDE50010A26
:10063800DD10D8A401D001D019D0D8900101010152
:100648005E350001A06F010101015F350001A16F56
:100658000101120E0001A025D96E0101010E000151
:10066800A121DA6E010EDE6E000EDD6ED89001015A
:1006780001015E350001A06F010101015F35000134
:10068800A16F0101000E0001A025D96E0101010E24
:100698000001A121DA6E000EDE6E000EDD6E00D0C4
:1006A800010101015E4B5F2B090E010101015E5D35
:1006B800000E01015F59D8A001D001D031D700D078
:1006C800050E216E100E206E4BEC09F00001A06F94
:1006D8000001A005D8A401D001D084D101010101F5
:1006E8005D515C11D8A401D001D09BD0010E216EC0
:1006F800F40E206EFCEC09F0000E010101015F6FA1
:10070800000E01015E6F090E010101015E5D000E20
:1007180001015F59D8A001D001D002D07BD07AD096
:10072800050E216E200E206E4BEC09F00009000E1C
:10073800D8B4010E00010001966F0001976B5EC1ED
:1007480098F05FC199F0FF0E000100019B6FFF0E4A
:1007580000019A6FD890010101015E350001A06F78
:10076800010101015F350001A16F0101360E000191
:10077800A025D96E0101010E0001A121DA6E000148
:10078800DECF9CF00001DDCF9DF000012BEC0AF0DC
:10079800D890010101015E350001A06F010101013E
:1007A8005F350001A16F0101120E0001A025D96E6D
:1007B8000101010E0001A121DA6E000EDE6E000EAD
:1007C800DD6ED890010101015E350001A06F0101C5
:1007D80001015F350001A16F0101480E0001A0254C
:1007E800D96E0101010E0001A121DA6E000EDE6E44
:1007F800000EDD6E010101015E4B5F2B090E010148
:1008080001015E5D000E01015F59D8A001D001D041
:1008180087D700D0000E010101015D6F010E0101B3
:100828005C6F000E010101015F6F000E01015E6F38
:10083800090E010101015E5D000E01015F59D8A09A
:1008480001D001D002D026D625D6D89001010101C9
:100858005E350001A06F010101015F350001A16F44
:100868000101480E0001A025D96E0101010E000109
:10087800A121DA6EDE50010ADD10D8A401D001D022
:1008880068D0D890010101015E350001A06F010117
:1008980001015F350001A16F0101360E0001A0259D
:1008A800D96E0101010E0001A121DA6EDE50DD10C2
:1008B800D8A401D001D01AD0D890010101015E3529
:1008C8000001A06F010101015F350001A16F010165
:1008D800360E0001A025D96E0101010E0001A121EB
:1008E800DA6E010EDE6E000EDD6E19D0D8900101B1
:1008F80001015E350001A06F010101015F350001B2
:10090800A16F0101360E0001A025D96E0101010E6B
:100918000001A121DA6E000EDE6E000EDD6ED890A9
:10092800010101015E350001A06F010101015F3580
:100938000001A16F0101480E0001A025D96E010137
:10094800010E0001A121DA6E000EDE6E000EDD6ED2
:1009580000D0050E216E200E206E4BEC09F0000928
:10096800000ED8B4010E00010001966F0001976BCC
:100978005EC198F05FC199F0FF0E000100019B6F06
:10098800FF0E00019A6FD890010101015E35000148
:10099800A06F010101015F350001A16F0101360E51
:1009A8000001A025D96E0101010E0001A121DA6E16
:1009B8000001DECF9CF00001DDCF9DF000012BECA3
:1009C8000AF0010101015E4B5F2B090E01010101D3
:1009D8005E5D000E01015F59D8A001D001D035D766
:1009E80059D558D5010101015C055D11D8A401D084
:1009F80001D0CED0070E216ED00E206EFCEC09F08F
:100A0800000E010101015F6F000E01015E6F090E0A
:100A1800010101015E5D000E01015F59D8A001D0FE
:100A280001D002D0AED0ADD05EC120F05FC121F0C0
:100A3800D890010101015E350001A06F010101019B
:100A48005F350001A16F0101360E0001A025D96EA6
:100A58000101010E0001A121DA6EDF50226E55EC72
:100A68000AF0D7EC0AF0050E216E200E206E4BEC32
:100A780009F00009000ED8B4010E00010001966FBC
:100A88000001976B5EC198F05FC199F0D8900101A1
:100A980001015E350001A06F010101015F35000110
:100AA800A16F0001600E0001A025D96E0001000EA3
:100AB8000001A121DA6E0001DECF9AF00001DDCF3E
:100AC8009BF0D890010101015E350001A26F010180
:100AD80001015F350001A36F0101240E0001A22569
:100AE800D96E0101010E0001A321DA6E0001DECFEB
:100AF8009CF00001DDCF9DF000012BEC0AF0D890AE
:100B0800010101015E350001A06F010101015F359E
:100B18000001A16F0101480E0001A025D96E010155
:100B2800010E0001A121DA6E000EDE6E000EDD6EF0
:100B3800D890010101015E350001A06F010101019A
:100B48005F350001A16F0101120E0001A025D96EC9
:100B58000101010E0001A121DA6E000EDE6E000E09
:100B6800DD6E010101015E4B5F2B090E01010101E0
:100B78005E5D000E01015F59D8A001D001D054D7A5
:100B880000D0000E010101015D6F000E01015C6FD4
:100B9800000E010101015F6F000E01015E6F090E79
:100BA800010101015E5D000E01015F59D8A001D06D
:100BB80001D002D06FD46ED4D890010101015E3506
:100BC8000001A06F010101015F350001A16F010162
:100BD800360E0001A025D96E0101010E0001A121E8
:100BE800DA6EDE50010ADD10D8A401D001D085D01C
:100BF800D890010101015E350001A06F01010101DA
:100C08005F350001A16F0101480E0001A025D96ED2
:100C18000101010E0001A121DA6EDE50010ADD108A
:100C2800D8A401D001D007D1D890010101015E35C7
:100C38000001A06F010101015F350001A16F0101F1
:100C4800240E0001A025D96E0101010E0001A12189
:100C5800DA6EDE50DD10D8A401D001D01AD0D890B9
:100C6800010101015E350001A06F010101015F353D
:100C78000001A16F0101240E0001A025D96E010118
:100C8800010E0001A121DA6E010EDE6E000EDD6E8E
:100C980019D0D890010101015E350001A06F010152
:100CA80001015F350001A16F0101240E0001A0259B
:100CB800D96E0101010E0001A121DA6E000EDE6E6F
:100CC800000EDD6ED890010101015E350001A06FB4
:100CD800010101015F350001A16F0101480E00010A
:100CE800A025D96E0101010E0001A121DA6E000EC6
:100CF800DE6E000EDD6E9FD09ED0D89001010101FE
:100D08005E350001A06F010101015F350001A16F8F
:100D18000101480E0001A025D96E0101010E000154
:100D2800A121DA6EDE50010ADD10D8A401D001D06D
:100D380032D0D890010101015E350001A06F010198
:100D480001015F350001A16F0101240E0001A025FA
:100D5800D96E0101010E0001A121DA6E010EDE6ECD
:100D6800000EDD6ED890010101015E350001A06F13
:100D7800010101015F350001A16F0101480E000169
:100D8800A025D96E0101010E0001A121DA6E000E25
:100D9800DE6E000EDD6ED890010101015E350001A6
:100DA800A06F010101015F350001A16F0101120E61
:100DB8000001A025D96E0101010E0001A121DA6E02
:100DC800DE50010ADD10D8A401D001D034D0D8906B
:100DD800010101015E350001A06F010101015F35CC
:100DE8000001A16F0101240E0001A025D96E0101A7
:100DF800010E0001A121DA6E000EDE6E000EDD6E1E
:100E0800D890010101015E350001A06F01010101C7
:100E18005F350001A16F0101120E0001A025D96EF6
:100E28000101010E0001A121DA6E000EDE6E000E36
:100E3800DD6E01D000D0050E216E200E206E4BEC29
:100E480009F00009000ED8B4010E00010001966FE8
:100E58000001976B5EC198F05FC199F0D8900101CD
:100E680001015E350001A06F010101015F3500013C
:100E7800A16F0001600E0001A025D96E0001000ECF
:100E88000001A121DA6E0001DECF9AF00001DDCF6A
:100E98009BF0D890010101015E350001A26F0101AC
:100EA80001015F350001A36F0101240E0001A22595
:100EB800D96E0101010E0001A321DA6E0001DECF17
:100EC8009CF00001DDCF9DF000012BEC0AF0010140
:100ED80001015E4B5F2B090E010101015E5D000EF1
:100EE80001015F59D8A001D001D066D64EEF02F0BB
:100EF8004EEF02F04EEF02F00EEF01F0000E00018F
:100F08000001976F000E0001966F2150000100014B
:100F1800986F0001996B20C09AF080D022042310AA
:100F2800D8A401D001D005D0000100019A51921235
:100F380097D0000100019A51FF0A921691D090D0E3
:100F480022042310D8A401D001D005D0000100014B
:100F58009A51931285D0000100019A51FF0A931605
:100F68007FD07ED022042310D8A401D001D005D090
:100F7800000100019A51941273D0000100019A51A6
:100F8800FF0A94166DD06CD022042310D8A401D087
:100F980001D005D0000100019A51951261D00001DD
:100FA80000019A51FF0A95165BD05AD022042310EB
:100FB800D8A401D001D005D0000100019A519612A1
:100FC8004FD0000100019A51FF0A961649D048D027
:100FD80022042310D8A401D001D005D000010001BB
:100FE8009A5197123DD0000100019A51FF0A9716B5
:100FF80037D036D022042310D8A401D001D005D090
:10100800000100019A5198122BD0000100019A5159
:10101800FF0A981625D024D023D022D0000198C0EA
:1010280024F0000199C025F02550000AD8B401D059
:1010380017D02450000AD8B471D7010AD8B480D781
:10104800030AD8B48FD7010AD8B49ED7070AD8B4F0
:10105800ADD7010AD8B4BCD7030AD8B4CBD700D0CF
:1010680012002150266E276A20C028F064D022047E
:101078002310D8A401D001D003D0285089127BD0E6
:101088002850FF0A891677D076D022042310D8A4D6
:1010980001D001D003D028508A126DD02850FF0A01
:1010A8008A1669D068D022042310D8A401D001D0B0
:1010B80003D028508B125FD02850FF0A8B165BD0C4
:1010C8005AD022042310D8A401D001D003D028502C
:1010D8008C1251D02850FF0A8C164DD04CD02204C7
:1010E8002310D8A401D001D003D028508D1243D0AA
:1010F8002850FF0A8D163FD03ED022042310D8A4D2
:1011080001D001D003D028508E1235D02850FF0AC4
:101118008E1631D030D022042310D8A401D001D0AB
:1011280003D028508F1227D02850FF0A8F1623D0BB
:1011380022D021D020D026C024F027C025F0255069
:10114800000AD8B401D017D02450000AD8B48FD7D9
:10115800010AD8B49AD7030AD8B4A5D7010AD8B4D3
:10116800B0D7070AD8B4BBD7010AD8B4C6D7030A80
:10117800D8B4D1D700D012000250076E086A01C057
:1011880009F064D003040410D8A401D001D003D01E
:10119800095089127BD00950FF0A891677D076D07A
:1011A80003040410D8A401D001D003D009508A1236
:1011B8006DD00950FF0A8A1669D068D0030404105C
:1011C800D8A401D001D003D009508B125FD00950A8
:1011D800FF0A8B165BD05AD003040410D8A401D0A0
:1011E80001D003D009508C1251D00950FF0A8C1637
:1011F8004DD04CD003040410D8A401D001D003D0A2
:1012080009508D1243D00950FF0A8D163FD03ED0A9
:1012180003040410D8A401D001D003D009508E12C1
:1012280035D00950FF0A8E1631D030D0030404108F
:10123800D8A401D001D003D009508F1227D009506B
:10124800FF0A8F1623D022D021D020D007C005F066
:1012580008C006F00650000AD8B401D017D00550CF
:10126800000AD8B48FD7010AD8B49AD7030AD8B4D9
:10127800A5D7010AD8B4B0D7070AD8B4BBD7010A92
:10128800D8B4C6D7030AD8B4D1D700D01200000EFC
:10129800276E000E266E2150246E256A20C028F085
:1012A80041D0805028140009000ED8B4010E266ED3
:1012B800276A58D0815028140009000ED8B4010EAE
:1012C800266E276A4FD0825028140009000ED8B421
:1012D800010E266E276A46D0835028140009000E96
:1012E800D8B4010E266E276A3DD084502814000910
:1012F800000ED8B4010E266E276A34D08550281403
:101308000009000ED8B4010E266E276A2BD086502D
:1013180028140009000ED8B4010E266E276A22D0C0
:1013280021D020D024C022F025C023F02350000A69
:10133800D8B401D017D02250000AD8B4B2D7010AC5
:10134800D8B4B8D7030AD8B4BED7010AD8B4C4D71A
:10135800070AD8B4CAD7010AD8B4D0D7030AD8B470
:10136800D6D700D0265000D0120001EE60F0480E0B
:10137800EE6AE806FDE100EE84F0120EEE6AE80679
:10138800FDE1406A3F6A3E6A3D6A160EF66E150E2A
:10139800F76E000EF86E01EEA8F010EE24F00900CA
:1013A800F5CFEEFFE550E150FAE1F20EF66E140EBD
:1013B800F76E000EF86E00EE60F010EE24F00900F3
:1013C800F5CFEEFFE550E150FAE1760EF66E150E18
:1013D800F76E000EF86E00EE29F010EE14F009001A
:1013E800F5CFEEFFE550E150FAE1000110EF01F012
:1013F800000E236E000E226E20D0000E256E000E09
:10140800246E2550800A800F910ED8B4245CD8A091
:1014180001D001D002D00ED00DD0244A252A255063
:10142800800A800F910ED8B4245CD8A001D001D0D6
:10143800F4D700D0224A232A00D02050225C215021
:101448002358D8A001D001D0D8D700D0120096C018
:101458003DF097C03EF0D89000010001983500019A
:101468009E6F00010001993500019F6F0001840EF5
:1014780000019E25D96E0001000E00019F21DA6E41
:1014880000019CC0DEFF00019DC0DDFF9AC020F076
:101498009BC021F09CC022F09DC023F035EC08F0E1
:1014A8001200236E000E246E23502150030B636E2E
:1014B80020C062FF22C061FF7F9E7F9C7F84000E58
:1014C800F2BE010E246EF29E550E7E6EAA0E7E6E40
:1014D8007F8200D07FB201D001D0FCD724B002D0E7
:1014E800F29E01D0F28E7F941200080310032003AD
:1014F8004003800301010201040108010204010400
:1015080001060206040608061006800540050403C5
:1015180002030103800440042004100408040404A6
:1015280001000100010001000100010001000100AB
:10153800010020507F0BD56E000ED76E000ED66EC0
:10154800F29420AE01D001D002D0F28A01D0F29AF2
:10155800D58E12002150030B636E20C062FF7F9C62
:101568007F9E7F8000F000F0615000D01200800262
:1015780040020102020210002000020004000800DC
:10158800000120C022F021C023F023C0D7FF22C0D1
:10159800D6FF120001C003F002C004F004C0D7FF58
:1015A80003C0D6FF120000D07FB201D001D0FCD713
:1015B80000D01200C450216EC350206E00D012001B
:0C15C800C230010B00D01200C2821200E1
:020000040020DA
:08000000FFFFFFFFFFFFFFFF00
:020000040030CA
:0E0000001508677C018991FF0FC00FE00F40CB
:00000001FF
