:04000000EFEF37F0F7
:106EB60000D07FB201D001D0FCD700D01200010073
:106EC60001000100010001000100010001000100B4
:106ED6002650030B636E25C062FF7F9C7F9E7F80DA
:106EE60000F000F0615000D01200286E000E296EEE
:106EF60028502650030B636E25C062FF27C061FF32
:106F06007F9E7F9C7F84000EF2BE010E296EF29E4C
:106F1600550E7E6EAA0E7E6E7F8200D07FB201D0A5
:106F260001D0FCD729B002D0F29E01D0F28E7F9418
:106F36001200040302030103800440042004100429
:106F4600080404048002400201020202100020002C
:106F560002000400080002040104010602060406F9
:106F660008061006800540050803100320034003A9
:106F760080030101020104010801000E286E000EC3
:106F8600276E20D0000E2A6E000E296E2A50800A27
:106F9600800F910ED8B4295CD8A001D001D002D0C0
:106FA6000ED00DD0294A2A2A2A50800A800F910E27
:106FB600D8B4295CD8A001D001D0F4D700D0274A94
:106FC600282A00D02550275C26502858D8A001D062
:106FD60001D0D8D700D0120001EEEEF0120EEE6A04
:106FE600E806FDE100EE60F0120EEE6AE806FDE14D
:106FF60000EE01F0240EEE6AE806FDE1380EF66EAC
:107006006F0EF76E000EF86E01EEA6F010EE48F069
:107016000900F5CFEEFFE550E150FAE1C40EF66E39
:107026006E0EF76E000EF86E00EE40F010EE12F0E7
:107036000900F5CFEEFFE550E150FAE10001E6EF79
:1070460039F02F502E10D8A401D001D015D030C061
:1070560025F031C026F0000E286E010E276ECCEC0E
:1070660038F032C025F033C026F036C027F037C0DE
:1070760028F0CCEC38F014D030C025F031C026F022
:1070860036C027F037C028F0CCEC38F032C025F0F7
:1070960033C026F0000E286E010E276ECCEC38F0B9
:1070A60034C025F035C026F036C027F037C028F0AA
:1070B600CCEC38F01200000E2C6E000E2B6E265013
:1070C600296E2A6A25C02DF041D080502D14000962
:1070D600000ED8B4010E2B6E2C6A58D081502D1498
:1070E6000009000ED8B4010E2B6E2C6A4FD08250C8
:1070F6002D140009000ED8B4010E2B6E2C6A46D052
:1071060083502D140009000ED8B4010E2B6E2C6A84
:107116003DD084502D140009000ED8B4010E2B6EFC
:107126002C6A34D085502D140009000ED8B4010EF7
:107136002B6E2C6A2BD086502D140009000ED8B465
:10714600010E2B6E2C6A22D021D020D029C027F028
:107156002AC028F02850000AD8B401D017D02750EA
:10716600000AD8B4B2D7010AD8B4B8D7030AD8B43B
:10717600BED7010AD8B4C4D7070AD8B4CAD7010AF9
:10718600D8B4D0D7030AD8B4D6D700D02B5000D065
:10719600120026502B6E2C6A25C02DF064D02704D1
:1071A6002810D8A401D001D003D02D5089127BD04D
:1071B6002D50FF0A891677D076D027042810D8A438
:1071C60001D001D003D02D508A126DD02D50FF0A68
:1071D6008A1669D068D027042810D8A401D001D017
:1071E60003D02D508B125FD02D50FF0A8B165BD02B
:1071F6005AD027042810D8A401D001D003D02D508E
:107206008C1251D02D50FF0A8C164DD04CD027042D
:107216002810D8A401D001D003D02D508D1243D010
:107226002D50FF0A8D163FD03ED027042810D8A433
:1072360001D001D003D02D508E1235D02D50FF0A2B
:107246008E1631D030D027042810D8A401D001D012
:1072560003D02D508F1227D02D50FF0A8F1623D022
:1072660022D021D020D02BC029F02CC02AF02A50C1
:10727600000AD8B401D017D02950000AD8B48FD745
:10728600010AD8B49AD7030AD8B4A5D7010AD8B444
:10729600B0D7070AD8B4BBD7010AD8B4C6D7030AF1
:1072A600D8B4D1D700D01200000E2C6E000E2B6E73
:1072B60026502D6E2E6A25C02FF064D02704281084
:1072C600D8A401D001D003D02F5092127BD02F50DA
:1072D600FF0A921677D076D027042810D8A401D0BA
:1072E60001D003D02F5093126DD02F50FF0A931662
:1072F60069D068D027042810D8A401D001D003D0C3
:107306002F5094125FD02F50FF0A94165BD05AD09C
:1073160027042810D8A401D001D003D02F509512ED
:1073260051D02F50FF0A95164DD04CD02704281067
:10733600D8A401D001D003D02F50961243D02F509D
:10734600FF0A96163FD03ED027042810D8A401D0B5
:1073560001D003D02F50971235D02F50FF0A971621
:1073660031D030D027042810D8A401D001D003D0C2
:107376002F50981227D02F50FF0A981623D022D0CC
:1073860021D020D02DC029F02EC02AF02A50000A84
:10739600D8B401D017D02950000AD8B48FD7010A23
:1073A600D8B49AD7030AD8B4A5D7010AD8B4B0D7A7
:1073B600070AD8B4BBD7010AD8B4C6D7030AD8B4CB
:1073C600D1D700D0120021EEA6F011EE00F0120E79
:1073D600DECFE6FFE82EFCD721EEB8F011EE36F050
:1073E600120EDECFE6FFE82EFCD721EECAF011EE34
:1073F60048F0120EDECFE6FFE82EFCD721EEDCF0D9
:1074060011EE12F0120EDECFE6FFE82EFCD721EECB
:10741600EEF011EE24F0120EDECFE6FFE82EFCD7DA
:1074260020EE01F011EE90F0120EDECFE6FFE82E10
:10743600FCD720EE13F011EE5AF0120EDECFE6FF67
:10744600E82EFCD720EE40F011EE7EF0120EDECFD5
:10745600E6FFE82EFCD720EE60F011EE6CF0120E7F
:10746600DECFE6FFE82EFCD7000E01010101A36F77
:10747600000E0101A26F000E0F010F01256F000E15
:107486000F010F01246F050E266E100E256E000EDD
:10749600286E010E276E57EC39F0050E266E200E6B
:1074A600256E000E286E010E276E57EC39F0000E81
:1074B600266E010E256E000E286E000E276E57EC06
:1074C60039F0000E01010101A56F000E0101A46F44
:1074D600090E01010101A45D000E0101A559D8A004
:1074E60001D001D002D09BD09AD0D89001010101E1
:1074F600A435386E01010101A535396E0101000E72
:107506003824D96E0101010E3920DA6EDECF25F05E
:10751600DDCF26F0000E286E010E276E57EC39F0EF
:10752600D89001010101A435386E01010101A5358C
:10753600396E0101360E3824D96E0101010E39204B
:10754600DA6EDECF25F0DDCF26F0000E286E000EB7
:10755600276E57EC39F0D89001010101A435386E39
:1075660001010101A535396E0101480E3824D96E95
:107576000101010E3920DA6EDECF25F0DDCF26F0CF
:10758600000E286E000E276E57EC39F0D8900101D8
:107596000101A435386E01010101A535396E0101DD
:1075A600120E3824D96E0101010E3920DA6EDECFB3
:1075B60025F0DDCF26F0000E286E000E276E57EC64
:1075C60039F0A4C125F0A5C126F06BEC37F0386E72
:1075D600396AD89001010101A4353A6E0101010111
:1075E600A5353B6E01017E0E3A24D96E0101010ECE
:1075F6003B20DA6E38C0DEFF39C0DDFF0101010134
:10760600A44BA52B090E01010101A45D000E010189
:10761600A559D8A001D001D068D701D000D0000E5E
:10762600266E140E256EC0EC37F0000E0101010126
:10763600A56F000E0101A46F090E01010101A45DF1
:10764600000E0101A559D8A001D001D002D0B3D0B7
:10765600B2D0D89001010101A435386E01010101B3
:10766600A535396E0101000E3824D96E0101010ECF
:107676003920DA6EDECF25F0DDCF26F05EEC38F06D
:107686003A6E3A04D8A401D001D042D0D890010174
:107696000101A435386E01010101A535396E0101DC
:1076A600240E3824D96E0101010E3920DA6EDE501F
:1076B600DD10D8A401D001D015D0D8900101010168
:1076C600A435386E01010101A535396E0101900E10
:1076D6003824D96E0101010E3920DA6E010EDE6EF4
:1076E600000EDD6ED89001010101A435386E01014E
:1076F6000101A535396E0101240E3824D96E010128
:10770600010E3920DA6E010EDE6E000EDD6E43D0FC
:10771600D89001010101A435386E01010101A5359A
:10772600396E0101240E3824D96E0101010E39206B
:10773600DA6EDE50010ADD10D8A401D001D015D0D2
:10774600D89001010101A435386E01010101A5356A
:10775600396E01015A0E3824D96E0101010E392005
:10776600DA6E010EDE6E000EDD6ED89001010101AB
:10777600A435386E01010101A535396E0101240ECB
:107786003824D96E0101010E3920DA6E000EDE6E44
:10779600000EDD6E00D001010101A44BA52B090EE0
:1077A60001010101A45D000E0101A559D8A001D077
:1077B60001D04FD700D0050E266E100E256E5EEC5A
:1077C60038F0386E3804D8A401D001D09AD101011E
:1077D6000101A351A211D8A401D001D0ACD0010E51
:1077E600266EF40E256EC0EC37F0000E0101010185
:1077F600A56F000E0101A46F090E01010101A45D30
:10780600000E0101A559D8A001D001D002D08CD01C
:107816008BD0050E266E200E256E5EEC38F0000924
:10782600000ED8B4010E2E6E2F6AD8900101010108
:10783600A435386E01010101A535396E0101360EF8
:107846003824D96E0101010E3920DA6EDECF30F010
:10785600DDCF31F0D89001010101A4353A6E010166
:107866000101A5353B6E0101480E3A24D96E01018E
:10787600010E3B20DA6EDECF32F0DDCF33F0FF0EA5
:10788600356EFF0E346ED89001010101A4353C6EB1
:1078960001010101A5353D6E01017E0E3C24D96E24
:1078A6000101010E3D20DA6EDECF36F0DDCF37F076
:1078B60024EC38F0D89001010101A435386E01019D
:1078C6000101A535396E01015A0E3824D96E010120
:1078D600010E3920DA6E000EDE6E000EDD6ED890D7
:1078E60001010101A435386E01010101A535396E8A
:1078F6000101900E3824D96E0101010E3920DA6E8D
:10790600000EDE6E000EDD6E01010101A44BA52BFB
:10791600090E01010101A45D000E0101A559D8A0BF
:1079260001D001D076D700D0000E01010101A36F6E
:10793600010E0101A26F000E01010101A56F000EEB
:107946000101A46F090E01010101A45D000E0101F0
:10795600A559D8A001D001D002D061D660D6D89062
:1079660001010101A435386E01010101A535396E09
:107976000101900E3824D96E0101010E3920DA6E0C
:10798600DE50010ADD10D8A401D001D058D0D8901D
:1079960001010101A435386E01010101A535396ED9
:1079A60001017E0E3824D96E0101010E3920DA6EEE
:1079B600DE50DD10D8A401D001D016D0D890010138
:1079C6000101A435386E01010101A535396E0101A9
:1079D6007E0E3824D96E0101010E3920DA6E010EB1
:1079E600DE6E000EDD6E15D0D89001010101A435C2
:1079F600386E01010101A535396E01017E0E38246C
:107A0600D96E0101010E3920DA6E000EDE6E000E0F
:107A1600DD6ED89001010101A435386E0101010126
:107A2600A535396E0101900E3824D96E0101010E7B
:107A36003920DA6E000EDE6E000EDD6E00D0050E09
:107A4600266E200E256E5EEC38F00009000ED8B4C6
:107A5600010E2E6E2F6AD89001010101A435386EF1
:107A660001010101A535396E0101360E3824D96EA2
:107A76000101010E3920DA6EDECF30F0DDCF31F0B4
:107A8600D89001010101A4353A6E01010101A53525
:107A96003B6E0101480E3A24D96E0101010E3B20CE
:107AA600DA6EDECF32F0DDCF33F0FF0E356EFF0E2D
:107AB600346ED89001010101A4353C6E010101012B
:107AC600A5353D6E01017E0E3C24D96E0101010EE5
:107AD6003D20DA6EDECF36F0DDCF37F024EC38F01D
:107AE60001010101A44BA52B090E01010101A45DB1
:107AF600000E0101A559D8A001D001D030D78FD5ED
:107B06008ED501010101A205A311D8A401D001D08F
:107B1600D8D0070E266ED00E256EC0EC37F0000EBC
:107B260001010101A56F000E0101A46F090E0101FB
:107B36000101A45D000E0101A559D8A001D001D014
:107B460002D0B8D0B7D0A4C125F0A5C126F0D890F0
:107B560001010101A435386E01010101A535396E17
:107B660001017E0E3824D96E0101010E3920DA6E2C
:107B7600DF50276E78EC37F05BEC37F0050E266E9B
:107B8600200E256E5EEC38F00009000ED8B4010E0A
:107B96002E6E2F6AD89001010101A435386E0101BD
:107BA6000101A535396E0101360E3824D96E010161
:107BB600010E3920DA6EDECF30F0DDCF31F0D8900D
:107BC60001010101A4353A6E01010101A5353B6EA3
:107BD6000101480E3A24D96E0101010E3B20DA6EEE
:107BE600DECF32F0DDCF33F0D89001010101A435AC
:107BF6003C6E01010101A5353D6E0101120E3C24CA
:107C0600D96E0101010E3D20DA6EDECF34F0DDCFF4
:107C160035F0D89001010101A4353E6E0101010144
:107C2600A5353F6E01016C0E3E24D96E0101010E91
:107C36003F20DA6EDECF36F0DDCF37F024EC38F0B9
:107C4600D89001010101A435386E01010101A53565
:107C5600396E0101900E3824D96E0101010E3920CA
:107C6600DA6E000EDE6E000EDD6ED89001010101A7
:107C7600A435386E01010101A535396E01015A0E90
:107C86003824D96E0101010E3920DA6E000EDE6E3F
:107C9600000EDD6E01010101A44BA52B090E0101A9
:107CA6000101A45D000E0101A559D8A001D001D0A3
:107CB6004AD700D0000E01010101A36F000E010199
:107CC600A26F000E01010101A56F000E0101A46F54
:107CD600090E01010101A45D000E0101A559D8A0FC
:107CE60001D001D002D09BD49AD4D89001010101D1
:107CF600A435386E01010101A535396E01017E0EEC
:107D06003824D96E0101010E3920DA6EDE50010ADF
:107D1600DD10D8A401D001D071D0D89001010101A5
:107D2600A435386E01010101A535396E0101900EA9
:107D36003824D96E0101010E3920DA6EDE50010AAF
:107D4600DD10D8A401D001D0DFD0D8900101010107
:107D5600A435386E01010101A535396E01016C0E9D
:107D66003824D96E0101010E3920DA6EDE50DD109D
:107D7600D8A401D001D016D0D89001010101A435B4
:107D8600386E01010101A535396E01016C0E3824EA
:107D9600D96E0101010E3920DA6E010EDE6E000E7B
:107DA600DD6E15D0D89001010101A435386E0101B0
:107DB6000101A535396E01016C0E3824D96E010119
:107DC600010E3920DA6E000EDE6E000EDD6ED890E2
:107DD60001010101A435386E01010101A535396E95
:107DE6000101900E3824D96E0101010E3920DA6E98
:107DF600000EDE6E000EDD6E87D086D0D8900101B3
:107E06000101A435386E01010101A535396E010164
:107E1600900E3824D96E0101010E3920DA6EDE503B
:107E2600010ADD10D8A401D001D02AD0D8900101D2
:107E36000101A435386E01010101A535396E010134
:107E46006C0E3824D96E0101010E3920DA6E010E4E
:107E5600DE6E000EDD6ED89001010101A435386E8C
:107E660001010101A535396E0101900E3824D96E44
:107E76000101010E3920DA6E000EDE6E000EDD6E97
:107E8600D89001010101A435386E01010101A53523
:107E9600396E01015A0E3824D96E0101010E3920BE
:107EA600DA6EDE50010ADD10D8A401D001D02CD044
:107EB600D89001010101A435386E01010101A535F3
:107EC600396E01016C0E3824D96E0101010E39207C
:107ED600DA6E000EDE6E000EDD6ED8900101010135
:107EE600A435386E01010101A535396E01015A0E1E
:107EF6003824D96E0101010E3920DA6E000EDE6ECD
:107F0600000EDD6E01D000D0050E266E200E256E09
:107F16005EEC38F00009000ED8B4010E2E6E2F6A02
:107F2600D89001010101A435386E01010101A53582
:107F3600396E0101360E3824D96E0101010E392041
:107F4600DA6EDECF30F0DDCF31F0D89001010101DD
:107F5600A4353A6E01010101A5353B6E0101480EBB
:107F66003A24D96E0101010E3B20DA6EDECF32F0E3
:107F7600DDCF33F0D89001010101A4353C6E01013B
:107F86000101A5353D6E0101120E3C24D96E010199
:107F9600010E3D20DA6EDECF34F0DDCF35F0D8901D
:107FA60001010101A4353E6E01010101A5353F6EB7
:107FB60001016C0E3E24D96E0101010E3F20DA6EDE
:107FC600DECF36F0DDCF37F024EC38F001010101C9
:107FD600A44BA52B090E01010101A45D000E0101B0
:107FE600A559D8A001D001D080D612EF3BF012EFF0
:0A7FF6003BF012EF3BF000EF00F04B
:020000040020DA
:08000000FFFFFFFFFFFFFFFF00
:020000040030CA
:0E0000001508677C018991FF0FC00FE00F40CB
:00000001FF
